:020000040800F2
:1000000010050020010100084B260008511D0008C2
:1000100049260008630C0008AD2A00080000000013
:10002000000000000000000000000000352700086C
:10003000FF0C0008000000004D26000853270008B0
:100040001B0100081B0100081B0100081B01000820
:100050001B0100081B0100081B0100081B01000810
:100060001B0100081B0100081B0100081B01000800
:100070001B0100081B0100081B0100081B010008F0
:100080001B0100081B0100081B0100081B010008E0
:100090001B0100081B0100081B0100081B010008D0
:1000A0001B0100081B0100081B0100081B010008C0
:1000B000E12700081B0100081B0100081B010008C4
:1000C0001B0100081B0100081B0100081B010008A0
:1000D0001B010008A12A00081B0100081B010008E1
:1000E0001B0100081B0100081B010008DFF80CD0F1
:1000F00000F0E0FB004800478530000810050020B4
:100100000648804706480047FEE7FEE7FEE7FEE7B1
:10011000FEE7FEE7FEE7FEE7FEE7FEE799270008B9
:10012000ED000008202A04DB203A21FA02F0002129
:10013000704721FA02F3D040C2F1200291400843F7
:10014000194670470649074A0868504343F2390286
:10015000104408604008704701490860704700007B
:10016000700000206D4EC641D2B201E000F8012BB4
:10017000491EFBD270470022F6E710B513460A4627
:1001800004461946FFF7F0FF204610BDF0B480EAA0
:100190000102D40F4200B2EB410F02D202460846E0
:1001A00011464A0042D0C30DDDB2C1F3C752AD1AA9
:1001B000202D35DAC1F3160141F4000204B1524298
:1001C000C5F1200602FA06F12A411044B3EBD05FD4
:1001D00023D0C4B1012DA0EBC35009DCF0BC4FF01B
:1001E000004202EAC352DBB200F5000000F085BA1B
:1001F000400000F1807000EBC350A0F1807040EA35
:10020000D170490009E0490841EAC071A0EBC35030
:1002100000F50000400800EBC350F0BC00F064BAE9
:100220006142012202EB4101001BF6E7F0BC70477E
:1002300081F00041AAE780F00040A7E780EA0102D0
:1002400010B502F00043400022D04A001FD0010E3A
:1002500001EB1261C0F35600C2F3560240F40000F5
:1002600042F40002A0FB022000047F39140400D0F5
:10027000401C50EA124001D44000491EC2B20C0694
:1002800004EBD010401C4008802A02D003E000207C
:1002900010BD20F00100002900DA0020184310BD35
:1002A0002DE9FE4F804681EA0300C00F0C46009006
:1002B00021F0004123F00045B8EB0200A94105D22E
:1002C0004046214690461C460B46024623F000401D
:1002D000104347D0270DC7F30A00C3F30A51029019
:1002E000401A019040286BDAC3F3130040F4801BDE
:1002F0000098924620B10023D2EB030A63EB0B0B6C
:1003000001985946C0F14002504600F0CCF906462B
:100310000D4650465946019A00F0D4F910EB0800FA
:100320006141002487EA115284EAE7731A4340D0FE
:10033000009A62B3019A012A4FEA075215DC001BAA
:1003400061EB02014FF0004202EA0752CDE90042A0
:10035000001C41F5801132462B4600F00BFA03B029
:10036000BDE8F08F40462146F9E7001B61EB020132
:10037000001C41F5801300185B412018A2F50017FE
:1003800047EB030140EAD570B6196D4111E06D08E5
:100390004FEA360645EAC0754FEA0752001B61EB8B
:1003A0000201001C41F5801149084FEA3000001994
:1003B000514132462B4603B0BDE8F04F00F0CBB9B7
:1003C0000098012240000023D0EB020263EBE073AF
:1003D000009821464FEAE074B8EB000061EB04019D
:1003E000E9E783F000435BE781F0004158E72DE93E
:1003F000FE4F81EA030404F0004421F00041009420
:100400004FF0000B23F0004350EA01045ED052EAA3
:1004100003045BD0C3F30A54C1F30A552C44A4F27D
:10042000F3340194A0FB0254C1F3130141F4801191
:10043000C3F3130343F4801301FB024400FB034E98
:10044000840A970A44EA815447EA8357A4FB076861
:1004500002958D0A05FB07854FEA932C04FB0C548B
:100460002705029D4FEA065847EA1637B5EB0805FF
:100470006EEB070C870E920E47EA811742EA831251
:10048000A7FB0201B6EB0B0164EB00042B0D43EA62
:100490000C335E1844EB1C50DA465146E7FB020170
:1004A000C5F313044FEA0B3343EA14534FEA043203
:1004B000019C43EA0603A4F10C040294009CCDE9DC
:1004C00000B400F057F903B0BDE8F08F00200146FA
:1004D000F9E72DE9F04D81EA030404F0004B21F027
:1004E000004514464FF0000A23F0004150EA05028F
:1004F00020D054EA01021DD0C5F30A570246C5F3C5
:100500001303C1F31300C1F30A5640F4801543F4FA
:100510008013A7EB0608101BD64608F2FD3873EBD4
:10052000050002D308F1010801E092185B41B8F11F
:10053000000F03DA00200146BDE8F08D00204FF4E3
:100540008011064684460EE0171B73EB050705D3A2
:10055000121B63EB050306434CEA010C49084FEA02
:10056000300092185B4150EA0107EDD152EA0300D6
:1005700012D082EA040083EA0501084305D0101B6B
:10058000AB4106D20122002306E000224FF00043D7
:1005900002E06FF0010253101AEB06004CEB085119
:1005A00010EB0A0041EB0B01BDE8F04D00F0D3B8B1
:1005B00070B521F0004303430CD0C1F30A55002469
:1005C000D5EB040564EB0403D617AD1AB34102DB87
:1005D0000020014670BD201841EB025170BDC10FD3
:1005E00080EAE0700844CA079623002100F085B82D
:1005F0000EB540F2334102910021CDE900110A46C7
:100600000B4600F0B7F803B000BD70B5C1F30A5255
:1006100001F000450024C1F3130140F2FF3341F41F
:1006200080119A4201DA002070BD40F233439A42B1
:10063000A2F2334203DC5242FFF774FD00E0904027
:100640002C43F1D0404270BD00F0004230F0004039
:100650000AD0C10D01F56071C0F3160042EA0151E4
:10066000C20840071143704700200146704701F05F
:10067000004330B421F0004150EA010206D00A0DD7
:10068000A2F56072C1F31301002A02DC30BC002025
:100690007047440F44EAC104C100E01830BC00EBCD
:1006A000C25000F021B8202A04DB203A00FA02F1FF
:1006B000002070479140C2F1200320FA03F3194350
:1006C00090407047202A06DBCB17203A41FA02F00F
:1006D00043EAE07306E041FA02F3D040C2F120029F
:1006E00091400843194670470029A8BF7047401C35
:1006F000490008BF20F00100704710B4B0FA80FC38
:1007000000FA0CF050EA010404BF10BC704749B174
:10071000CCF1200421FA04F411FA0CF118BF0121E4
:1007200021430843A3EB0C01CB1D4FEA00614FEAC4
:10073000102042BF002010BC704700EBC350104493
:100740000029A4BF10BC7047401C490008BF20F01E
:10075000010010BC704710B5141E73F1000408DAD4
:10076000401C41F1000192185B411A4301D120F075
:10077000010010BD2DE9F04D92469B4611B1B1FA32
:1007800081F202E0B0FA80F220329046FFF78BFF50
:1007900004460F4640EA0A0041EA0B0153465A4616
:1007A000084313D0114653EA010019D0C8F14002A2
:1007B0005046FFF7B7FC05460E465046594642469E
:1007C000FFF771FF084305D0012004E020463946B9
:1007D000BDE8F08D0020054346EAE0762C43374320
:1007E0000A986305E40AA0EB08000022FD0A44EA27
:1007F00047540A3002D500200146E9E701051019E7
:100800006941DDE9084500196941BDE8F04DA2E7FD
:100810002DE9F04D00231A461B1A8A4103DB002004
:100820000146BDE8F08DC1F30A52C1F3130141F452
:1008300080154FF0000BD10702D100186D41521EF8
:100840000027044640F2FF11384601EB620A3E469B
:100850008046024600204FF48011FFF763FCC21966
:100860007141BB1846EB0100B4EB030C75EB000CB7
:1008700004D3E41A65EB000517460E46241908F167
:1008800001006D4180463428E3DDF91946EB06008E
:10089000091BA84103D24FF0FF32134601E00022AA
:1008A00013461BEB070046EB0A51BDE8F04DFFF77E
:1008B00052BF0000064C074D06E0E06840F001031F
:1008C00094E8070098471034AC42F6D3FFF712FCC7
:1008D00078390008983900082DE9F04104460D46A2
:1008E000002023B1012B1AD0022B39D146E010464B
:1008F000FFF7AAFE0F46064629460846FFF79EFC6C
:10090000054621460846FFF799FC2946FFF73EFCBD
:10091000FFF79AFE02F09AFE32463B4616E0114679
:100920000846FFF78BFC064629460846FFF786FC7B
:100930003146FFF72BFCFFF787FE02F087FE0546E6
:100940000E462046FFF780FE2A463346FFF7C1FDDC
:10095000FFF78DFEFFF778FE02F044F9FFF787FE00
:100960001249FFF76BFCFFF76FFE114A114BFFF7BF
:10097000B0FDFFF74AFE00B2BDE8F081114608461F
:10098000FFF75CFC064621460846FFF757FC314658
:10099000FFF7FCFBFFF758FE02F058FE06460C4638
:1009A0002846FFF751FE32462346CFE70000E144D8
:1009B0001F85EB51B81E094010B501F0A1FC0020C5
:1009C00000F01EF8E52801D0012010BD0B213120D8
:1009D00000F015F908212C2000F011F908212D2034
:1009E00000F00DF900211E2000F009F900211F2060
:1009F00000F005F90521202000F001F9002010BDCC
:100A000010B5044601F00EFDA62001F0D3FC01F064
:100A10004BFD204601F0CEFC01F046FD01F002FD49
:100A2000A72001F0C7FC01F03FFD002001F090FC81
:100A3000044601F01DFD204610BD00002DE9F041E7
:100A4000074615460E463220FFF7DAFF134C20709A
:100A50003320FFF7D5FF60703420FFF7D1FFA0707F
:100A60003520FFF7CDFFE0703620FFF7C9FF20717A
:100A70003720FFF7C5FF60712078617800EB012017
:100A80003880A078E17800EB01203080207961790E
:100A900000EB01202880BDE8F08100005800002014
:100AA00070B5374A0323911E881E00F06DF8344C50
:100AB000241FB4F90400FFF792FD0646B4F90200C2
:100AC000FFF78DFD0546B4F90000FFF788FD01230F
:100AD00032462946FFF700FFE080B4F90400FFF733
:100AE0007EFD0646B4F90200FFF779FD0546B4F92C
:100AF0000000FFF774FD022332462946FFF7ECFEA3
:100B00002081B4F90400FFF76AFD0546B4F902003C
:100B1000FFF765FD0646B4F90000FFF760FD00230E
:100B20002A463146FFF7D8FE60810A23B4F9061041
:100B300090FBF3F091FBF3F10AB2A281B4F9081033
:100B400000B291FBF3F109B2E18120822D2420252E
:100B50000C4B002A02DA1C70524200E01D705A70E1
:100B6000002902DA9C70494200E09D70D97000288B
:100B700002DA1C71404200E01D715871012070BD05
:100B80004A000020300000202DE9FE4306464FF0C9
:100B90000000308008805FEA030814460D4610808C
:100BA0002BD0002718E002AA01A96846FFF746FFEC
:100BB0003088BDF80010084430802888BDF8041043
:100BC000084428802088BDF80810084420800520AB
:100BD00002F018F97F1CFFB24745E4D3B6F90010C4
:100BE00091FBF8F03080B5F9001091FBF8F0288007
:100BF000B4F9001091FBF8F02080BDE8FE8370B5D9
:100C00000D46044601F00EFCA62001F0D3FB01F0D6
:100C10004BFC204601F0CEFB01F046FC284601F0DB
:100C2000C9FB01F041FCBDE8704001F021BC0000AF
:100C300001490009085C704707000020024900F0E4
:100C40000F00085C70470000070000200A21B0FB7D
:100C5000F1F2B0FBF1F301FB130000EB0210C0B2A4
:100C60007047FEE710B501F0E1F800210E2001F019
:100C700096F8022002F0C6F800210F2001F08FF84C
:100C8000BDE81040022002F0BDB82DE9F0478846CB
:100C900008A9994691E870001746FFF7D7FFC1B23F
:100CA000062001F07CF84046FFF7D0FFC1B20520D6
:100CB00001F075F83846FFF7C9FFC1B2042001F012
:100CC0006EF84846FFF7C2FFC1B2032001F067F893
:100CD0002046FFF7BBFFC1B2022001F060F82846B2
:100CE000FFF7B4FFC1B2012001F059F83046FFF719
:100CF000ADFFBDE8F047C1B2002001F050B8704729
:100D000010B590F821100024022903D0042181633A
:100D100001243DE001680A6822F00E020A600168C1
:100D20000A6822F001020A601A4A0168914201D160
:100D3000012121E0174A1432914201D110211BE018
:100D4000144A2832914201D1891515E0114A3C32EA
:100D5000914201D189140FE00E4A5032914202D1E2
:100D60004FF4803108E00B4A6432914202D14FF4D3
:100D7000801101E04FF08071064A083A516001216C
:100D800080F82110002180F82010416B01B18847C4
:100D9000204610BD0800024070B5044600F0FEF881
:100DA0000546601C02D004480078044400F0F6F8C0
:100DB000401BA042FAD370BD600000202DE9F84F1F
:100DC000DFF8A491002409F1040A0AF1040B234678
:100DD0004FF00F080BF1040EBEE00127A7403A4088
:100DE000BA4272D1DFF884C14D68A5EB0C066545A7
:100DF0002BD00DDC032D34D005DC35B3012D19D0FB
:100E0000022D2FD11BE0112D16D0122D2AD119E061
:100E1000B6F5881F19D006DCB6F5803F15D0B6F5BB
:100E2000801F1FD111E0B6F5001F0ED0B6F5041FCC
:100E300018D10AE0CB6815E0CB681B1D12E0CB6827
:100E400008330FE0CB680C330CE08B682BB1012B1F
:100E50004FF0080303D0476104E0042302E0076178
:100E600000E00023FF2A01D8064601E000F1040655
:100E70004FEA840501D9A5F12005376808FA05FC79
:100E800027EA0C0703FA05F547EA050737604D68BE
:100E9000ED0060D5364DAE6946F00106AE61AD6934
:100EA00024F0030605F001050095324D7719BE6860
:100EB000A5072D0F08FA05FC26EA0C06DFF8B8C0D6
:100EC000604503D14FF0000C17E044E0DFF8ACC000
:100ED000604502D14FF0010C0FE0DFF8A4C060457F
:100EE00002D14FF0020C08E0DFF898C0604502D153
:100EF0004FF0030C01E04FF0040C0CFA05FC4CEA37
:100F0000060CC7F808C04D68D9F80060ED034D46DF
:100F100001D5164300E096432E604D68DAF8006074
:100F2000AD03554601D5164300E096432E604D684B
:100F3000DBF80060ED025D4601D5164300E0964304
:100F40002E604D68DEF80060AD02754601D516438F
:100F500000E096432E60641C0A6832FA04F57FF4C0
:100F60003CAFBDE8F88F0000000401400000111004
:100F7000001002400000014000080140000C014048
:100F800000100140001401408068084000D001209A
:100F900070470AB1016170470904FBE701488068A6
:100FA0007047000060000020024881680278114408
:100FB0008160704760000020074810B5016841F06B
:100FC00010010160032000F075F8002000F006F821
:100FD00000F024F8002010BD0020024070B50D4D37
:100FE00004464FF47A712878B1FBF0F00A49096899
:100FF000B1FBF0F000F005FB48B9102C07D200223D
:101000002146501E00F036F800206C6070BD0120B3
:1010100070BD0000600000206C0000200C4808B586
:10102000816941F001018161816901F00101009153
:10103000C16941F08051C161C069064900F080502A
:101040000090486820F0E06040F00070486008BD03
:101050000010024000000140002809DB00F01F02E0
:10106000012191404009800000F1E020C0F800110A
:1010700070470000F0B40E4B1B68C3F30223C3F1AA
:101080000704042C00D904241D1D072D01D20023C0
:1010900000E0DB1E012606FA04F56D1E0D409D40A2
:1010A0009E40761E164045EA0601F0BC01F013BDD5
:1010B0000CED00E0064A00F0070110684FF6FF0350
:1010C000184040EA012003490843106070470000BF
:1010D0000CED00E00000FA050648026822F0040268
:1010E0000260012903D040BF20BF20BF704730BF3E
:1010F0007047000010ED00E02DE9F0470D460400B8
:1011000067D0DFF81881D8F8000000F00700A84287
:101110000CD2D8F8001021F007012943C8F80010BC
:10112000D8F8000000F00700A84252D120683C4ED9
:10113000810712D5400703D5706840F4E060706005
:101140002078000703D5706840F4605070607068C4
:10115000A16820F0F000084370602078C00727D015
:101160006068012810D03168022810D08907002952
:101170002FDA716821F0030101437160FFF70EFF60
:10118000074641F288390CE031688903EFE78901AD
:10119000EDE7FFF703FFC11B494502D90320BDE876
:1011A000F0877068616800F00C00B0EB810FF0D13F
:1011B000D8F80010404601F00701A9420BD9016898
:1011C00021F0070129430160006800F00700A842F0
:1011D00001D00120E3E72078400705D57068E16879
:1011E00020F4E060084370602078000706D570683E
:1011F000216920F4605040EAC100706000F038F8C6
:101200007168084AC1F30311515CC840064908607F
:1012100006480068FFF7E2FE0020C0E70020024019
:1012200000100240C43800086C0000206400002058
:101230000448054900684968044AC1F30221515C29
:10124000C84070476C00002000100240D4380008ED
:101250000448054900684968044AC1F3C221515C49
:10126000C84070476C00002000100240D4380008CD
:1012700012A085B00FC88DE80F0014A0144B0068B1
:1012800004905968134801F00C02042A10D0082A6F
:101290000ED1C1F38342C9031DF802000AD5596873
:1012A00004AAC1F34041515C0A4A5043B0FBF1F03B
:1012B00005B0704708494843FAE7000002030405F7
:1012C000060708090A0B0C0D0E0F10100102000092
:1012D0000010024000127A0000093D002DE9F84F8D
:1012E00004006FD02078BE4DC00747D06868C0F3B7
:1012F0008100012807D06868C0F38100022809D165
:101300006868C00306D52868800337D56068002860
:10131000E7D033E06068B0F5803F0BD010B1B0F596
:10132000A02F11D0286820F480302860286820F48D
:10133000802002E0286840F480302860606888B12E
:10134000FFF72CFE064609E0286840F4802028605C
:10135000F0E7FFF723FE801B642873D8286880031A
:10136000F7D50BE0FFF71AFE064604E0FFF716FE7E
:10137000801B6428F1D828688003F7D42078DFF830
:10138000648280074FF0010A4FF0000939D5686880
:1013900010F00C0F07D06868C0F38100022809D153
:1013A0006868C00306D42868800714D5206901281E
:1013B00008D110E02069B0B1C8F800A0FFF7EEFD39
:1013C000064605E007E1FFF7E9FD801B0228C4D8C7
:1013D00028688007F7D52868616920F0F80040EA9E
:1013E000C10028600DE0C8F80090FFF7D7FD064661
:1013F00004E0FFF7D3FD801B022823D8286880076C
:10140000F7D4207800072CD57748A169D9B1C0F866
:1014100000A0FFF7C3FD064604E0FFF7BFFD801BF9
:1014200002280FD8686A8007F7D570484FF4FA5140
:101430000068B0FBF1F0009000BF0098411E0091E1
:10144000FAD20EE07CE0C0F80090FFF7A7FD064658
:1014500004E0FFF7A3FD801B022871D8686A8007AB
:10146000F7D4207840075BD5E8690027C00008D48E
:10147000E86940F08050E861E869012700F0805099
:1014800000905B480168C90511D40168834641F4A6
:1014900080710160FFF782FD064604E0FFF77EFDE4
:1014A000801B64284CD8DBF80000C005F6D5E06846
:1014B00001280AD008B1052813D0286A20F00100BD
:1014C0002862286A20F0040002E0286A40F0010047
:1014D0002862E06841F2883B88B1FFF75FFD06466D
:1014E00009E0286A40F004002862EEE7FFF756FDA5
:1014F000811B59455BD8286A8007F7D50BE0FFF7B9
:101500004DFD064604E0FFF749FD811B59454ED8C5
:10151000286A8007F7D41FB1E86920F08050E8619D
:10152000E069A8B36968C1F38101022946D00228A5
:10153000484606D0C8F86000FFF730FD044639E0A1
:1015400035E04746C8F86000FFF728FD064604E08E
:10155000FFF724FD801B022829D828688001F7D4D2
:10156000206AB0F5803F05D16868A16820F400309A
:1015700008436860D4E908010843696821F47411DC
:1015800008436860C7F860A0FFF708FD044605E05F
:1015900023E0FFF703FD001B022808D8286880011C
:1015A000F7D51AE0FFF7FAFC001B022802D9032046
:1015B000BDE8F88F28688001F4D40EE00128F7D048
:1015C0006868226A00F48031914204D1616A00F4B3
:1015D0007010884201D00120EAE70020E8E700000F
:1015E0000010024000004242800442426C00002091
:1015F000007000404FF0E020016941F002010161FC
:10160000704710B5401EB0F1807F01D3012010BD9E
:101610004FF0E02460610F21601701F05CFA0020B8
:10162000A06107202061002010BD4FF0E02001697B
:1016300021F00201016170477047704770B590F862
:101640003C20012A19D0012500F83C5F022242709B
:1016500050F83C2C5368946823F070060B68496876
:10166000334324F080042143536050F83C2C9160B4
:10167000457000210170084670BD022070BD10B594
:10168000040003D094F83D0010B107E0012010BD24
:10169000002084F83C00204600F00CF8022084F87A
:1016A0003D00211D206801F0A1F8012084F83D00D3
:1016B000002010BD08B50068B0F1804F12D10A4873
:1016C000C16941F00101C161C069002200F001005F
:1016D000009011461C20FFF7CDFCBDE808401C20FF
:1016E000FFF7BABC08BD0000001002400168CA68DC
:1016F00042F00102CA600068816801F00701062912
:1017000003D0016841F0010101600020704770B50D
:10171000044690F83C00012817D0012584F83C507D
:10172000022084F83D002068826822F0770222F4CB
:101730007F4282600868502830D00DDC20284DD0D0
:1017400005DC98B310283BD148E0022070BD30285A
:1017500044D0402834D139E0602828D0702806D001
:10176000B0F5805F2CD0B0F5005F29D10AE0CB68DE
:10177000D1E90121206801F06FF82068816841F00B
:10178000770109E0CB68D1E90121206801F064F814
:101790002068816841F48041816011E0CA6849682D
:1017A000206801F06BF85021206807E016E0CA6855
:1017B0004968206801F073F86021206801F056F84C
:1017C00084F83D50002084F83C0070BDCA68496828
:1017D000206801F053F840212068EFE722680146B5
:1017E0001046EBE7704770B50446006801694FF09A
:1017F0000005C943890715D4C168C943890711D4B5
:10180000E91E016101202077206880698007204659
:1018100002D0FFF7E7FF04E000F098F8204600F060
:1018200096F8257720680169C943490717D4C1682C
:10183000C943490713D46FF00401016102202077E6
:101840002068806910F4407F204602D0FFF7CAFF6D
:1018500004E000F07BF8204600F079F82577206856
:101860000169C943090716D4C168C943090712D4DD
:101870006FF008010161042020772068C0698007AB
:10188000204602D0FFF7AEFF04E000F05FF82046EC
:1018900000F05DF8257720680169C943C90617D4AF
:1018A000C168C943C90613D46FF010010161082053
:1018B00020772068C06910F4407F204602D0FFF7EF
:1018C00091FF04E000F042F8204600F040F8257750
:1018D00020680169C943C90708D1C168C943C9075C
:1018E00004D1891E0161204600F032F820680169A8
:1018F000C943090609D4C168C943090605D46FF074
:10190000800101612046FFF797FE20680169C94305
:10191000490609D4C168C943490605D46FF040019E
:101920000161204600F042F820680169C943890638
:101930000BD4C168C943890607D46FF02001016147
:101940002046BDE87040FFF778BE70BD7047704715
:1019500030B4144900680968884221D11249012035
:101960000023C8700879A1F12602012809D1CB70A3
:10197000D068401CA0F5F854D060A43C01D1D360DD
:101980000B71887901280BD15069401CA0F52F44B8
:101990005061C83C04D153618B7130BC01F068BA0E
:1019A00030BC7047780000203E0000207047704730
:1019B00070B5026804461068D168536910F00F0FC3
:1019C00051D003F0010501F4907635435DD0C20794
:1019D00005D0CA0503D5E26B42F00102E26342077B
:1019E00005D5DA0703D0E26B42F00202E263820718
:1019F00005D5DA0703D0E26B42F00402E263020786
:101A000005D5DA0703D0E26B42F00802E263E26B2D
:101A1000002A34D0800604D5880602D5204600F07E
:101A200066FF20684069E16BC0F3801001F0080197
:101A30000143204624D000F04CFF2068416949064C
:101A40001AD5416921F040014161606BA0B11B4989
:101A50004163606BFFF754F9002810D0606B416B55
:101A6000BDE87040084783060FD58B060DD520468C
:101A7000BDE8704000F03BBF2046FFF798FF70BD07
:101A8000FFF795FF0020E06370BD030606D50B0647
:101A900004D52046BDE8704000F0D0BF4006F3D525
:101AA0004806F1D5D168204621F04001D1602021BF
:101AB00084F8391000F0A0F870BD0000C3280008B9
:101AC00070B5040004D094F83900002510B106E088
:101AD000012070BD84F83850204600F023F82420FF
:101AE00084F839002068C16821F40051C1602046A3
:101AF00000F048FF2068016921F4904101612068ED
:101B0000416921F02A0141612068C16841F4005116
:101B1000C160E563202084F8390084F83A00002091
:101B200070BD000030B585B000240094019402948B
:101B300003940068184988422CD11848816941F4FF
:101B400080418161816901F480410491816941F0A2
:101B5000040181618069124D00F0040004904FF48B
:101B600000700090022001900320039069462846EF
:101B7000FFF724F92815CDE90004694628460294A8
:101B8000FFF71CF9002211462520FFF773FA2520E4
:101B9000FFF762FA05B030BD003801400010024086
:101BA0000008014090F83A30202B22D1F9B1F2B16F
:101BB00090F83830012B1CD081628285C2850021CB
:101BC000C163222280F83A2080F838100168CA6880
:101BD00042F48072CA6001684A6942F001024A61B7
:101BE0000068C16841F02001C160002070470120F9
:101BF00070470220704770477047000070B5044678
:101C00000078032101F0E8FD504D4FF4807600226A
:101C100031462846FFF7BDF9012001F0F3F8012213
:101C200031462846FFF7B5F9142001F0EBF860784B
:101C3000022101F0D1FD002231462846FFF7A9F923
:101C4000012001F0DFF8012231462846FFF7A1F913
:101C5000142001F0D7F8A078012101F0BDFD002289
:101C600031462846FFF795F9012001F0CBF8012213
:101C700031462846FFF78DF9142001F0C3F8E078CB
:101C8000002101F0A9FD002231462846FFF781F925
:101C9000012001F0B7F8012231462846FFF779F913
:101CA000142001F0AFF82079032101F095FD6E15A5
:101CB000002231462846FFF76CF9012001F0A2F816
:101CC000012231462846FFF764F9142001F09AF802
:101CD0006079022101F080FD002231462846FFF79D
:101CE00058F9012001F08EF8012231462846FFF70D
:101CF00050F9142001F086F8A079012101F06CFD63
:101D0000002231462846FFF744F9012001F07AF815
:101D1000012231462846FFF73CF9142001F072F801
:101D2000E079002101F058FD002231462846FFF7F6
:101D300030F9012001F066F8012231462846FFF70C
:101D400028F9BDE87040142001F05CB8000C014097
:101D5000FEE710B5044600F0FBF8D02000F0C0F814
:101D600000F040F9052001F055F8204600F0B8F8E1
:101D700000F038F9052001F04DF800F0E9F8D12025
:101D800000F0AEF800F02EF9052001F043F8002035
:101D900000F074F8044600F001F9204610BD70B55B
:101DA0000D46044600F0D4F8052001F033F8D020A9
:101DB00000F096F800F016F90A2001F02BF8204602
:101DC00000F08EF800F00EF9052001F023F8284607
:101DD00000F086F800F006F9052001F01BF800F08D
:101DE000DDF8BDE87040052001F014B810B50E4CC8
:101DF000002280212046FFF7CCF800224021204617
:101E0000FFF7C7F8022001F005F8012280212046E3
:101E1000FFF7BFF8022000F0FDFF20460022BDE8DA
:101E200010408021FFF7B5B8000C01400122C0210D
:101E30000148FFF7AEB80000000C014010B50E4C91
:101E4000002280212046FFF7A4F8012240212046ED
:101E5000FFF79FF8022000F0DDFF012280212046DD
:101E6000FFF797F8022000F0D5FF20460022BDE8DA
:101E700010408021FFF78DB8000C01402DE9F041A2
:101E80000025164E07462C46002280213046FFF7DB
:101E900080F8022000F0BEFF012280213046FFF7CB
:101EA00078F86806050E40213046FFF76DF810B14E
:101EB00045F0010501E025F00105012000F0AAFF31
:101EC000641CE4B2082CDFD327B1FFF78FFF28464C
:101ED000BDE8F081FFF7B2FFF9E70000000C014018
:101EE00070B51A4E05460024002280213046FFF7C7
:101EF00050F8142000F08EFF280601D5012200E0E2
:101F0000002240213046FFF744F80A2000F082FF0B
:101F10006806050E012280213046FFF73AF80A20B4
:101F200000F078FF641CE4B2082CDDD3002280218D
:101F30003046FFF72EF8022000F06CFF3046BDE877
:101F4000704001224021FFF724B80000000C01403E
:101F500010B5114C012240212046FFF71AF801204C
:101F600000F058FF012280212046FFF712F80520DB
:101F700000F050FF002240212046FFF70AF805201C
:101F800000F048FF002280212046FFF702F8BDE85C
:101F90001040022000F03EBF000C014010B5104C74
:101FA000002280212046FEF7F4FF01224021204636
:101FB000FEF7EFFF042000F02DFF012280212046D4
:101FC000FEF7E7FF052000F025FF01224021204613
:101FD000FEF7DFFFBDE81040042000F01BBF00004B
:101FE000000C014070B5104D0024012280212846CC
:101FF000FEF7CFFF022000F00DFF07E0641CE4B203
:10200000FA2C03D9FFF7CAFF012070BD40212846F2
:10201000FEF7BAFF0028F1D1002280212846FEF702
:10202000B8FF002070BD0000000C014010B50F4C3F
:10203000002208212046FEF7ACFF00224FF40041A9
:102040000B48FEF7A6FF012000F0E4FE0122082164
:102050002046FEF79EFF012000F0DCFE2046002215
:10206000BDE810400821FEF794BF0000000C0140BD
:102070000008014010B50122D1030548FEF789FF91
:102080000122BDE8104008210248FEF782BF00008F
:1020900000080140000C014010B50E4C0022082140
:1020A0002046FEF776FF0122D1030B48FEF771FFB1
:1020B000012000F0AFFE012208212046FEF769FF53
:1020C000012000F0A7FE20460022BDE810400821B4
:1020D000FEF75FBF000C0140000801402DE9F0470A
:1020E0000025184EDFF8609007462C464FF4004854
:1020F000002208213046FEF74CFF012000F08AFE46
:10210000012208213046FEF744FF6806050E4146CD
:102110004846FEF739FF10B145F0010501E025F012
:102120000105012000F076FE641CE4B2082CDFD328
:1021300027B1FFF77BFF2846BDE8F087FFF7ACFF2C
:10214000F9E70000000C0140000801402DE9F041D2
:10215000DFF86C801B4E054600244FF40047002238
:1021600008213046FEF715FF022000F053FE280636
:1021700001D5012200E0002239464046FEF709FF62
:10218000022000F047FE6806050E012208213046B5
:10219000FEF7FFFE022000F03DFE641CE4B2082CB6
:1021A000DDD3002208213046FEF7F3FE022000F0C6
:1021B00031FE39464046BDE8F0410122FEF7E9BE56
:1021C00000080140000C014070B50122114DD403FC
:1021D00021462846FEF7DDFE012000F01BFE0E4ED4
:1021E000012208213046FEF7D4FE012000F012FE45
:1021F000002221462846FEF7CCFE012000F00AFE10
:10220000002208213046FEF7C4FEBDE870400120E0
:1022100000F000BE00080140000C014070B5114CF8
:10222000002208212046FEF7B4FE01220E4ED503FF
:1022300029463046FEF7ADFE012000F0EBFD0122FD
:1022400008212046FEF7A5FE012000F0E3FD012253
:1022500029463046FEF79DFEBDE87040012000F0A3
:10226000D9BD0000000C0140000801402DE9F041FB
:10227000114D0024012208212846FEF78AFE022083
:1022800000F0C8FD4FF400460C4F08E0641CE4B2B7
:10229000FA2C04D9FFF7C2FF0120BDE8F0813146D6
:1022A0003846FEF771FE0028F0D1002208212846AA
:1022B000FEF76FFE0020F0E7000C0140000801402F
:1022C00010B50E4C002210212046FEF762FE0022BF
:1022D00020212046FEF75DFE0A2000F09BFD012232
:1022E00010212046FEF755FE0A2000F093FD2046FF
:1022F0000022BDE810401021FEF74BBE000C01404B
:10230000012230210148FEF744BE0000000C0140CC
:1023100010B50E4C002210212046FEF73AFE012295
:1023200020212046FEF735FE0A2000F073FD012231
:1023300010212046FEF72DFE0A2000F06BFD2046FE
:102340000022BDE810401021FEF723BE000C014022
:102350002DE9F0410025164E07462C46002210219B
:102360003046FEF716FE012000F054FD0122102138
:102370003046FEF70EFE6806050E20213046FEF7B9
:1023800003FE10B145F0010501E025F00105012033
:1023900000F040FD641CE4B2082CDFD327B1FFF746
:1023A0008FFF2846BDE8F081FFF7B2FFF9E7000094
:1023B000000C014070B51A4E054600240022102181
:1023C0003046FEF7E6FD0A2000F024FD280601D580
:1023D000012200E0002220213046FEF7DAFD0A202B
:1023E00000F018FD6806050E012210213046FEF7A8
:1023F000D0FD0A2000F00EFD641CE4B2082CDDD3F1
:10240000002210213046FEF7C4FD0A2000F002FD34
:102410003046BDE8704001222021FEF7BABD000021
:10242000000C014010B5114C012220212046FEF77E
:10243000B0FD082000F0EEFC012210212046FEF73E
:10244000A8FD082000F0E6FC002220212046FEF72F
:10245000A0FD082000F0DEFC002210212046FEF73F
:1024600098FDBDE81040082000F0D4BC000C0140ED
:1024700010B50C4C002220212046FEF78AFD0122D7
:1024800010212046FEF785FD082000F0C3FC012244
:1024900020212046FEF77DFDBDE81040082000F019
:1024A000B9BC0000000C014070B5104D00240122A1
:1024B00010212846FEF76DFD0A2000F0ABFC07E076
:1024C000641CE4B2FA2C03D9FFF7D2FF012070BDDF
:1024D00020212846FEF758FD0028F1D100221021C6
:1024E0002846FEF756FD002070BD0000000C01409C
:1024F0002DE9F04786B000243248009401940294FC
:102500000394816941F004018161816901F0040152
:102510000491816941F0080181618069DFF8A89028
:1025200000F00800049000227F214846FEF731FDAC
:10253000DFF898A0002245F203115046FEF729FD6E
:102540000122D70339464846FEF723FD4FF43E7873
:10255000012241465046FEF71CFD7F200126CDE9B1
:102560000006032569464846CDE90245FEF726FCEC
:1025700040F20310CDE9000669465046CDE9024518
:10258000FEF71CFC4FF4A040CDE900060220CDE987
:10259000024069465046FEF711FC1126CDE900764F
:1025A00069464846CDE90245FEF708FCCDE90086BC
:1025B00069465046CDE90245FEF700FC06B0BDE88D
:1025C000F08700000010024000080140000C0140AC
:1025D00010B586B00024114800940194029403942D
:1025E00004944FF08041059401605021C0E901142A
:1025F0006421C0E903148461FFF741F84FF480506F
:10260000009069460548FFF782F8049404A903483E
:102610000594FFF713F806B010BD00007800002005
:102620000848074901604FF416514160002181605C
:102630000C22C160C0E904128161C161FFF740BA98
:1026400000380140B8000020FEE770477047FFF7F0
:1026500011BD10B50446FFF7B7FD8020FFF776FDEA
:10266000FFF704FE2046FFF771FDFFF7FFFDFFF7C0
:10267000ABFD8120FFF76AFDFFF7F8FDC82000F0F1
:10268000C1FBC82000F0BEFBC82000F0BBFBC82087
:1026900000F0B8FB0120FFF721FD60F30F240020BC
:1026A000FFF71CFD60F30704FFF7B8FDA0B210BDF3
:1026B00010B5E520FFF7CDFFFDF79AFF6FF00F0291
:1026C000FDF776FF0022074BFDF791FE0022064B37
:1026D000FDF787FE0022054BFDF789FEFDF795FF0C
:1026E00000B210BD00405F400000184000002440D0
:1026F00010B5E320FFF7ADFFFDF77AFF6FF00F0293
:10270000FDF756FF4FF08042074BFDF770FE4FF08C
:102710004042064BFDF765FE0022054BFDF767FEC4
:10272000FDF773FF00B210BD0AF76540CC6C47405F
:1027300000002440704710B5FEF777FF012100200C
:10274000FEF7CAFCFEF756FFBDE81040C820FEF7B2
:1027500023BBFEF729BC10B590B028216846FDF7D1
:102760000AFD14210AA8FDF706FD022000900120B1
:10277000049010200024059007946846FEF7AEFDF3
:102780000F20CDE90A040C940D9400210AA80E94A0
:10279000FEF7B2FC10B010BD0D48016841F0010118
:1027A000016041680B4A1140416001680A4A1140CA
:1027B0000160016821F480210160416821F4FE017B
:1027C00041604FF41F0181600449C00308607047F5
:1027D000001002400000FFF8FFFFF6FE08ED00E0E9
:1027E0000148FFF700B8000078000020F0B502684B
:1027F000164C174D174E4FF08047A04205D0B842F7
:1028000003D0A84201D0B04203D122F070034A683D
:102810001A43A04205D0B84203D0A84201D0B0422A
:1028200003D122F44073CA681A434B6922F0800234
:102830001A4302608A68C2620A688262A04201D1B9
:102840000969016301214161F0BD0000002C0140D4
:10285000000400400008004010B5846842EA0322EA
:1028600024F47F440A432243826010BD826822F030
:1028700070020A4342F007018160704710B5046A94
:10288000036A23F001030362836923F0F00343EA40
:10289000021324F00A020A438361026210BD10B5DC
:1028A000036A23F0100303628469036A24F470440A
:1028B00044EA023223F0A00343EA0111826101627B
:1028C00010BD10B5406A0021C185C184FFF76FF8C3
:1028D00010BD0168CA6822F49072CA6001684A6932
:1028E00022F001024A61202180F83A10704710B5A9
:1028F00090F83A10222901D0022010BD8168B1F56C
:10290000805F11D00169002901681FD0496801F07A
:102910007F03816A4A1C82620B70C18D491E0904C3
:10292000090CC18518D02BE00269816A002A02686F
:10293000526805D0D2B20A80816A491C8162ECE7F4
:10294000C2F308020A80816A891CF7E74A68816A33
:102950004B1C83620A70E0E70168CA6822F020021B
:10296000CA600168CA6822F48072CA6001684A6954
:1029700022F001024A61202180F83A10FFF73BF96A
:10298000002010BD2DE9F041044600680169E268AD
:1029900021F4405111430161A1682069014360693C
:1029A00001432068C26841F20C639A430A43C26043
:1029B00020684169A26921F44071114341611E49B7
:1029C000206864253226884202D1FEF741FC01E0EE
:1029D000FEF72EFC00EBC00101EB001160686FF008
:1029E00018078000B1FBF0F2B2FBF5F2B1FBF0F397
:1029F0007A4303EB8202B1FBF0F306EB0212B2FB67
:102A0000F5F2B3FBF5F302F0F00202EB0312B1FBB7
:102A1000F0F3B1FBF0F0B0FBF5F0784303EB80008E
:102A200006EB0010B0FBF5F0216800F00F00104439
:102A30008860BDE8F08100000038014090F839104E
:102A4000212901D0022070478168B1F5805F016AB9
:102A50000BD04A1C0262026809785160C18C491E81
:102A60000904090CC1840ED017E009880268C1F37B
:102A70000801516001690029016A02D0491C016204
:102A8000ECE7891CFBE70168CA6822F08002CA6093
:102A90000068C16841F04001C1600020704700003B
:102AA0000148FEF785BF0000B8000020FEE749009E
:102AB00050EAC12018BF04204A0D18BF40F00100A1
:102AC00040F2FF72B2EB515F08BF40F002000128F4
:102AD00008BF052070470907090E002804DB00F134
:102AE000E02080F80014704700F00F0000F1E020B3
:102AF00080F8141D70472DE9F0414F1E00EBC7010F
:102B00000446D1E9000115461E4637F006020DD0F5
:102B10002A463346FDF76BFC7F1E04EBC703D3E95F
:102B20000023FDF7BDFB37F00602F1D1022F25D0BF
:102B3000042F13D0062F18BFBDE8F0812A46334674
:102B4000FDF755FCD4E90A23FDF7AAFB2A463346D4
:102B5000FDF74DFCD4E90823FDF7A2FB2A463346D6
:102B6000FDF745FCD4E90623FDF79AFB2A463346D8
:102B7000FDF73DFCD4E90423FDF792FB2A463346DA
:102B8000FDF735FCD4E90223FDF78AFB2A463346DC
:102B9000FDF72DFCD4E90023BDE8F041FDF780BB33
:102BA0000122FDF705BD0000024A00201107FDF7D4
:102BB000FFBC000001FDFFFF02E008C8121F08C1B2
:102BC000002AFAD170477047002001E001C1121FAE
:102BD000002AFBD1704700000149086070470000DF
:102BE000740000202DE9F84F04460D4621F0004006
:102BF00000917349814211DC7249884201DC06D19F
:102C00002CB120462946BDE8F84FFFF7C9BF6E48F2
:102C1000002DCCBF6D496E49BDE8F88F6D498142EA
:102C200011DD6D498142D8BF4FF0FF366DDD204682
:102C30002946FFF73CFF042808BFFFF7B5FF2046F1
:102C40002946BDE8F88F6549654F25F0004581426A
:102C500033DD6449814219DD002632464FF080435E
:102C600020462946FDF71CFB80468A460122204665
:102C70002946FDF79DFC00223B46FDF7B2FB42468C
:102C80005346FDF726FC04460D463EE00126002291
:102C9000BA463B4620462946FDF702FB80460F46D2
:102CA0000022534620462946FDF79BFB42463B4601
:102CB000FDF70FFC04460D4627E04B4981421BDD22
:102CC000DFF828A102260022534620462946FDF7B8
:102CD0008EFB00223B46FDF7E3FA80460F460022BA
:102CE000534620462946FDF77CFB42463B46FDF70E
:102CF000F0FB04460D4608E0032622462B46002042
:102D00003B49FDF7E6FB04460D4622462B4610469E
:102D10001946FDF76CFB8B46824602460B46FDF7D3
:102D200066FB07460246334888460B460621784430
:102D3000FFF7E1FE52465B46FDF759FB82462E48FF
:102D40008B463A46434605217844FFF7D4FE3A467F
:102D50004346FDF74CFB02460B46002E50465946B3
:102D60000CDAFDF79DFA22462B46FDF740FB01B039
:102D700022462B46BDE8F04FFDF736BBFDF790FA33
:102D800022462B46FDF733FB1C4A7A4402EBC6036E
:102D9000D3E90023FDF725FB22462B46FDF721FB57
:102DA000174A7A4402EBC603D3E90023FDF71CFB64
:102DB000009A002AB8BF81F00041BDE8F88F0000FA
:102DC000000010440000F07F182D4454FB21F93F0F
:102DD000FB21F9BF0000DC3F0000203E0000F33F74
:102DE0000000F03F0000E63F008003400000F83F95
:102DF0000000F0BF160C0000D40B0000720B0000A6
:102E00003A0B0000002804D0FA21491EFDD1401ED3
:102E1000FAD17047C1B203E06420401EC0B2FCD2B8
:102E2000491EC9B2F8D2704710B50620FEF791FFCF
:102E30000E4CE0700520FEF78CFF20710420FEF799
:102E400088FF60710320FEF784FFA0710220FEF767
:102E500080FF00F03F0020700120FEF77AFF6070D5
:102E60000020FEF776FFA07010BD000000000020DB
:102E700030B585B000241648009401940294039460
:102E8000816941F0040181618069224600F00400FB
:102E900004904FF480410F48FEF77BF80E4D00225E
:102EA0004FF480612846FEF774F800226915284621
:102EB000FEF76FF84FF4C0610120CDE90010032048
:102EC000CDE9024069462846FDF778FF05B030BDE0
:102ED00000100240000C0140000801400A2290FB53
:102EE000F2F302FB130310B530338B7190FBF2F356
:102EF00093FBF2F402FB143330330B71642390FB29
:102F0000F3F090FBF2F302FB13003030C87010BDF9
:102F10002DE9FE4FDFF85C914FF0010889F806803B
:102F2000FFF77EFBDFF850A1012291035046FEF728
:102F300030F8DFF848B1012291025846FEF729F82F
:102F4000012251025846FEF724F84D48816941F0AC
:102F500004018161806900F004000090FFF760FBCC
:102F6000A9F10804492121704E206070A1705426F7
:102F7000E6702025257160714F27A7715720E071F9
:102F80002046FEF73BFEFDF717FD2046FEF736FE16
:102F9000FDF768FEFFF75BFB12220F2113208DE87F
:102FA0000700062303220A211420FDF76EFE53209A
:102FB000207066705220A0704120E070267165710B
:102FC000A7714B20E0712046FEF718FE4FF4FA7609
:102FD0003046FFF717FF3046FFF714FF0022E901E4
:102FE0005046FDF7D6FF25706570A570E570257118
:102FF0006571A571E5712046FEF700FE89F8058030
:103000000022E9005046FDF7C4FF00222901504686
:10301000FDF7BFFF002204215846FDF7BAFF00224A
:1030200008215846FDF7B5FF002202215046FDF762
:10303000B0FF002201215046FDF7ABFF00224021E6
:103040005846FDF7A6FF002220215846FDF7A1FFB4
:10305000002202215846FDF79CFF0022012158461C
:10306000FDF797FF03B05846BDE8F04F002210214E
:10307000FDF78FBF3E000020000C0140000801401A
:10308000001002400EB5B24D4FF0000A85F800A0C6
:1030900085F802A085F801A085F804A085F803A0B2
:1030A000FDF78AFFFFF757FBFFF722FAFFF7B8FAA1
:1030B000FFF78EFAA748FEF719FB00F0D9F9FFF7E2
:1030C00027FFFFF738FBDFF890B24FF00109A8792E
:1030D00001287DD19F490F228031A1F14000FEF7E8
:1030E00061FD002874D19B4E80363078542870D111
:1030F000707801286ED1B07B64286BD1F07800F035
:103100000F01000900EB800001EB4000C0B2F0703D
:10311000317901F00F02090901EB810102EB410154
:10312000C9B23171727902F00F03120902EB820207
:1031300003EB4202D2B27271B37903F00F041B09A0
:1031400003EB830304EB4303DBB2B371F47904F0C4
:103150000F07240904EB840407EB440404F0FF0C7C
:1031600086F807C0347A04F00F07240904EB8404BE
:1031700007EB4404E7B23772747A04F00F082409AD
:1031800004EB840408EB4404E4B27472CDE900C794
:103190000294FDF77AFD14213046FCF7ECFFFFF7AF
:1031A00043FE012211036D48FDF7F3FE85F80490FC
:1031B00085F805A000F05CF99BF800005F4600F080
:1031C0003F008BF80000FDF733FD614C083C02E046
:1031D00031E020E02AE020703878FDF72FFD6070A4
:1031E0004FF02D0884F802807878FDF721FDE0701B
:1031F0007878FDF723FD207184F80580B878FDF715
:1032000017FDA071B878FDF719FDE0712046FEF7B3
:10321000F5FC00F041FA30784F2807D170784B2840
:1032200004D14C4814218030FCF7A5FF49481421F3
:103230008030FCF7A0FFE87801282CD1544685F8AF
:1032400003A0FDF72DFC424A0E3A90782D2802D0BB
:10325000202806D016E0D178102913D385F80790DE
:1032600010E0E97901290DD1D17810290AD3384B22
:10327000EC71263B4CF250361969491C1961B14278
:1032800000DB1C61D178152901D220280AD02D2914
:1032900001D985F80590287901287FF418AF00F04E
:1032A000FBF914E768790128F5D1FFF7BDFD2B4E36
:1032B000012211033046FDF76CFE85F8049085F875
:1032C0000690FFF7ADF9012291033046FDF761FE4C
:1032D000234E012291023046FDF75BFE012251028E
:1032E0003046FDF756FE1F48816941F004018161B7
:1032F000806900F004000090FFF792F96C7100F013
:10330000B7F89BF800005E4600F03F008BF8000025
:10331000FDF78EFC0E4C083C20703078FDF78EFCDB
:1033200060702D27A7707078FDF782FCE0707078D0
:10333000FDF784FC20716771B078FDF779FCA0710E
:10334000B078FDF77BFCE0712046FEF757FCA2E762
:103350003E0000207800002000000020000C01400A
:10336000000801400010024010B5FCF7EBFE0A21F6
:1033700090FBF1F201FB1200303010BD10B5FFF7E9
:1033800097F9134A4FF0FD51B1EB005F90801BD0CD
:10339000C0F30B01A1F58063A13B15D0D0800C498F
:1033A000B2F904001E31FFF799FD094848211E308B
:1033B00001702021417081702E2141712521C17140
:1033C000BDE81040FEF71ABCD0889080E7E7000007
:1033D0001800002010B5FFF78BF90F4A0F49108035
:1033E000B1EB005F02D15088108000E050800A49A4
:1033F000B2F900001E31FFF771FD074854211E305D
:1034000001702021417081702E2141714321C171D1
:10341000BDE81040FEF7F2BB180000200000C0E23B
:1034200070B5114DE878FDF703FC104C2070E8787A
:10343000FDF704FC60702D26A6702879FDF7F8FBD7
:10344000E0702879FDF7FAFB207166716879FDF765
:10345000EFFBA0716879FDF7F1FBE0712046BDE854
:103460007040FEF7CBBB00000000002036000020BB
:103470002DE9F041012211031B48FDF78AFD0020D0
:103480001A4E2D253554401C0828FBDB0024292723
:103490004FF4967837551548FEF7B0FB4046FFF7D6
:1034A000B1FC641C082CF5DB0024FFF75DFF3070D5
:1034B000FFF75AFF7070B570FFF756FFF070FFF717
:1034C00053FF30717571FFF74FFFB071FFF74CFF7D
:1034D000F0710648FEF792FBC820FFF793FC641CCE
:1034E0000C2CE2DBBDE8F081000C0140360000202E
:1034F000204830B400690A2290FBF2F102FB11036C
:103500001C4930331E31CB7190FBF2F393FBF2F484
:1035100002FB143330338B71642390FBF3F494FB80
:10352000F2F502FB154230324A714FF47A7490FB87
:10353000F4F292FBF3F503FB152230320A7190FB93
:10354000F4F292FBF3F403FB14223032CA7020220F
:103550000A2800DA8A714A710A71CA705320087009
:103560005420487050208870024830BC1E30FEF74E
:1035700045BB00001800002070B5FFF755FC124D48
:10358000287800F03F002870FDF752FB0F4C2070A8
:103590002878FDF753FB60702D26A6706878FDF73C
:1035A00047FBE0706878FDF749FB20716671A878E9
:1035B000FDF73EFBA071A878FDF740FBE0712046C7
:1035C000BDE87040FEF71ABB000000203600002066
:1035D000F0B41C484E2654228479452555215323A6
:1035E0001948082C24D2DFE804F02304080B111535
:1035F0001B204D2101704F2118E00270457003E03F
:103600005721017045704421817011E002704822F9
:103610004270F9E746210170522141704921F3E7D8
:10362000037041214170827002E003704170867026
:103630002021C170017141718171C171F0BC0248DA
:10364000FEF7DCBA00000020360000202DE9F04132
:1036500006460F46FDF7DCF804000D4618BF0120B2
:10366000284320F00040C0F17F6000F1E040C00F2F
:103670000ED0301C18BF0120384320F00040C0F1AC
:103680007F6000F1E040C00F04BF0120FFF7A4FA03
:1036900020462946BDE8F08170B54B4CE068B0F596
:1036A0007A7F16D0B0F5FA6F1ED0A0F53061B83928
:1036B0000CD0B0F57A6F1DD0B1F5FA6117D0B1F525
:1036C0007A711AD0B1F57A711AD01BE0FFF710FFAA
:1036D00018E0FFF751FF3D48A1684079884211D0BA
:1036E000A060002020610DE0FFF746FF0AE0FFF731
:1036F00045FE07E0FFF76EFE04E0FFF769FF01E01B
:10370000FFF78EFEE068B0F5FA5F5BDD304C00221B
:103710004FF480512046FDF73CFC2B4A20211E32FD
:103720001046117051709170D17011715171917179
:10373000D171FEF763FA0022A1152046FDF729FC9E
:10374000002261152046FDF724FC224D00220421B1
:103750002846FDF71EFC002208212846FDF719FC2B
:10376000002202212046FDF714FC00220121204600
:10377000FDF70FFC002240212846FDF70AFC00223D
:1037800020212846FDF705FC002202212846FDF7EE
:1037900000FC002201212846FDF7FBFB002210213E
:1037A0002846FDF7F6FB0122C0212046FDF7F1FB7C
:1037B000012248F208012046FDF7EBFBBDE870400E
:1037C000FEF7B9BF70BD0000180000200000002007
:1037D000000C0140000801402DE9F05F374D044620
:1037E00031B1012906D002290BD003290BD014E0F6
:1037F000002200E0012208212846FDF7CAFB002232
:1038000007E0002200E0012208212846FDF7C1FB65
:10381000012204212846FDF7BCFB14F0010FC4F37C
:10382000400AC4F38009C4F3C008C4F30017C4F30A
:103830004016DFF88CB0C4F3801401D0012200E000
:10384000002202215846FDF7A4FBBAF1000F01D077
:10385000012200E0002201215846FDF79AFBB9F150
:10386000000F01D0012200E0002240212846FDF790
:1038700090FBB8F1000F01D0012200E000222021CE
:103880002846FDF786FB0FB1012200E0002202214D
:103890002846FDF77EFB0EB1012200E00022012147
:1038A0002846FDF776FB0CB1012200E000222846F5
:1038B000BDE8F05F1021FDF76CBB0000000801407F
:1038C000000C0140000000000000000001020304A1
:1038D00006070809000000000102030400000000C0
:1038E0004FBB610567ACDD3F182D4454FB21E93F18
:1038F0009BF681D20B73EF3F182D4454FB21F93F07
:10390000E2652F227F2B7A3C075C143326A6813C8C
:10391000BDCBF07A8807703C075C143326A6913C37
:10392000C4EB98999999C9BF711623FEC671BCBFA3
:103930006D9A74AFF2B0B3BF9AFDDE522DDEADBF0B
:103940002F6C6A2C44B4A2BF0D5555555555D53F23
:10395000FF8300922449C23F6E204CC5CD45B73F3E
:10396000513DD0A0660DB13FEB0D76244B7BA93FB6
:1039700011DA22E33AAD903F9839000800000020A8
:1039800078000000B82B0008103A000878000020EA
:1039900098040000C82B0008000000000000003060
:1039A00031323334353637383941424344454600A5
:1039B0000000000000000000000000000000000007
:1039C00000000000000000000000000000002020B7
:1039D0002020202020200000000000000000000027
:1039E00000000000000000000000000000000000D7
:1039F00000000000000000000100000010000000B6
:103A0000000000000024F40000000000000000009E
:04000005080000ED02
:00000001FF
